:020000040800F2
:100000000000052031AE0008D1AB0008D3AB0008DA
:10001000D5AB0008D7AB0008D9AB00080000000042
:10002000000000000000000000000000DBAB000842
:10003000DDAB000800000000DFAB0008E1AB00080A
:1000400081AE000881AE000881AE000881AE0008D4
:1000500081AE000881AE000881AE000881AE0008C4
:1000600081AE000881AE000881AE00080DAC00082A
:100070001DAC00082DAC00083DAC00084DAC0008DC
:100080005DAC00086DAC000881AE000881AE0008D0
:1000900081AE000881AE000881AE00087DAC00088A
:1000A00081AE000881AE000881AE000881AE000874
:1000B00081AE000881AE000881AE000889AC00085E
:1000C00099AC000881AE000881AE000881AE00083E
:1000D00081AE000881AE0008A9AC0008B9AC0008E8
:1000E00081AE000881AE000881AE000881AE000834
:1000F00081AE000881AE000881AE0008C9AC0008DE
:1001000081AE000881AE000881AE000881AE000813
:10011000D9AC0008E9AC000881AE000881AE000847
:1001200081AE0008F9AC000809AD000881AE0008F6
:1001300081AE000881AE000881AE000881AE0008E3
:1001400081AE000881AE000881AE000881AE0008D3
:1001500081AE000819AD000881AE000829AD000885
:1001600081AE000881AE000881AE000881AE0008B3
:1001700081AE000881AE0008000000000000000011
:1001800081AE000881AE000881AE000881AE000893
:1001900081AE000881AE00080000000081AE0008BA
:1001A00081AE000881AE00080000000000000000E1
:1001B00081AE0008000000000000000081AE0008D1
:1001C00081AE000881AE000881AE000881AE000853
:0801D00081AE000881AE0008B9
:1001E000034613F8012B002AFBD1181A0138704777
:1001F00001F0FF01102A2BDB10F0070F08D010F8D8
:10020000013B013A8B422DD010F0070F42B3F6D1DB
:10021000F0B441EA012141EA014122F007047FF0F4
:1002200000070023F0E80256083C85EA010586EA4B
:10023000010685FA47F5A3FA87F586FA47F6A5FA87
:1002400087F68EB9EED1F0BC01F0FF0102F0070293
:1002500032B110F8013B013A83EA010313B1F8D13E
:100260000020704701387047002D06BF354603381F
:10027000073815F0010F07D1013015F4807F02BF58
:10028000013015F4C03F0130F0BC0138704700BFA9
:1002900081F0004102E000BF83F0004330B54FEA37
:1002A00041044FEA430594EA050F08BF90EA020FA4
:1002B0001FBF54EA000C55EA020C7FEA645C7FEA37
:1002C000655C00F0E2804FEA5454D4EB5555B8BF5A
:1002D0006D420CDD2C4480EA020281EA030382EACB
:1002E000000083EA010180EA020281EA0303362D5D
:1002F00088BF30BD11F0004F4FEA01314FF4801C30
:100300004CEA113102D0404261EB410113F0004F41
:100310004FEA03334CEA133302D0524263EB4303F8
:1003200094EA050F00F0A780A4F10104D5F1200E96
:100330000DDB02FA0EFC22FA05F2801841F10001F1
:1003400003FA0EF2801843FA05F359410EE0A5F1C5
:1003500020050EF1200E012A03FA0EFC28BF4CF0F6
:10036000020C43FA05F3C01851EBE37101F00045AC
:1003700007D54FF0000EDCF1000C7EEB00006EEBB9
:100380000101B1F5801F1BD3B1F5001F0CD3490843
:100390005FEA30004FEA3C0C04F101044FEA44529A
:1003A00012F5800F80F09A80BCF1004F08BF5FEA21
:1003B000500C50F1000041EB045141EA050130BD01
:1003C0005FEA4C0C404141EB0101013C28BFB1F513
:1003D000801FE9D291F0000F04BF01460020B1FA5E
:1003E00081F308BF2033A3F10B03B3F120020CDA31
:1003F0000C3208DD02F1140CC2F10C0201FA0CF00F
:1004000021FA02F10CE002F11402D8BFC2F1200C73
:1004100001FA02F120FA0CFCDCBF41EA0C01904029
:10042000E41AA2BF01EB0451294330BD6FEA040472
:100430001F3C1CDA0C340EDC04F11404C4F120025D
:1004400020FA04F001FA02F340EA030021FA04F36F
:1004500045EA030130BDC4F10C04C4F1200220FAC6
:1004600002F001FA04F340EA0300294630BD21FA04
:1004700004F0294630BD94F0000F83F4801306BFCA
:1004800081F480110134013D4EE77FEA645C18BFBE
:100490007FEA655C29D094EA050F08BF90EA020F55
:1004A00005D054EA000C04BF1946104630BD91EA4D
:1004B000030F1EBF0021002030BD5FEA545C05D150
:1004C0004000494128BF41F0004130BD14F580048F
:1004D0003CBF01F5801130BD01F0004545F0FE4103
:1004E00041F470014FF0000030BD7FEA645C1ABF38
:1004F000194610467FEA655C1CBF0B46024650EA6F
:10050000013406BF52EA033591EA030F41F400219A
:1005100030BD00BF90F0000F04BF0021704730B520
:100520004FF4806404F132044FF000054FF00001F5
:1005300050E700BF90F0000F04BF0021704730B5B6
:100540004FF4806404F1320410F0004548BF40428B
:100550004FF000013EE700BF42004FEAE2014FEAE0
:1005600031014FEA02701FBF12F07F4393F07F4FBB
:1005700081F06051704732F07F4208BF704793F0BE
:100580007F4F04BF41F40021704730B54FF46074D1
:1005900001F0004521F000411CE700BF50EA0102D4
:1005A00008BF704730B54FF000050AE050EA01027D
:1005B00008BF704730B511F0004502D5404261EBED
:1005C00041014FF4806404F132045FEA915C3FF42E
:1005D000D8AE4FF003025FEADC0C18BF03325FEACB
:1005E000DC0C18BF033202EBDC02C2F1200300FA7C
:1005F00003FC20FA02F001FA03FE40EA0E0021FAA1
:1006000002F11444BDE600BF70B54FF0FF0C4CF48E
:10061000E06C1CEA11541DBF1CEA135594EA0C0F40
:1006200095EA0C0F00F0DEF82C4481EA030621EA7B
:100630004C5123EA4C5350EA013518BF52EA0335B6
:1006400041F4801143F4801338D0A0FB02CE4FF068
:100650000005E1FB02E506F00042E0FB03E54FF098
:100660000006E1FB03569CF0000F18BF4EF0010E90
:10067000A4F1FF04B6F5007F64F5407404D25FEA8C
:100680004E0E6D4146EB060642EAC62141EA55513F
:100690004FEAC52040EA5E504FEACE2EB4F1FD0C81
:1006A00088BFBCF5E06F1ED8BEF1004F08BF5FEAFF
:1006B000500E50F1000041EB045170BD06F00046B1
:1006C00046EA010140EA020081EA0301B4EB5C045E
:1006D000C2BFD4EB0C0541EA045170BD41F4801156
:1006E0004FF0000E013C00F3AB8014F1360FDEBF7B
:1006F000002001F0004170BDC4F10004203C35DA57
:100700000C341BDC04F11404C4F1200500FA05F3D9
:1007100020FA04F001FA05F240EA020001F000427A
:1007200021F0004110EBD37021FA04F642EB0601F0
:100730005EEA430E08BF20EAD37070BDC4F10C041A
:10074000C4F1200500FA04F320FA05F001FA04F2DE
:1007500040EA020001F0004110EBD37041F10001CA
:100760005EEA430E08BF20EAD37070BDC4F12005D5
:1007700000FA05F24EEA020E20FA04F301FA05F23D
:1007800043EA020321FA04F001F0004121FA04F2E5
:1007900020EA020000EBD3705EEA430E08BF20EAB5
:1007A000D37070BD94F0000F0FD101F000464000EF
:1007B00041EB010111F4801F08BF013CF7D041EA71
:1007C000060195F0000F18BF704703F00046520075
:1007D00043EB030313F4801F08BF013DF7D043EA46
:1007E0000603704794EA0C0F0CEA135518BF95EAFC
:1007F0000C0F0CD050EA410618BF52EA4306D1D183
:1008000081EA030101F000414FF0000070BD50EAA1
:10081000410606BF1046194652EA430619D094EA2B
:100820000C0F02D150EA013613D195EA0C0F05D115
:1008300052EA03361CBF104619460AD181EA030169
:1008400001F0004141F0FE4141F470014FF0000021
:1008500070BD41F0FE4141F4780170BD70B54FF0BC
:10086000FF0C4CF4E06C1CEA11541DBF1CEA13553C
:1008700094EA0C0F95EA0C0F00F0A7F8A4EB05041E
:1008800081EA030E52EA03354FEA013100F0888015
:100890004FEA03334FF0805545EA131343EA1263DE
:1008A0004FEA022245EA111545EA10654FEA002693
:1008B0000EF000419D4208BF964244F1FD0404F54C
:1008C000407402D25B084FEA3202B61A65EB0305A8
:1008D0005B084FEA32024FF480104FF4002CB6EB65
:1008E000020E75EB030E22BFB61A754640EA0C00E5
:1008F0005B084FEA3202B6EB020E75EB030E22BF25
:10090000B61A754640EA5C005B084FEA3202B6EB65
:10091000020E75EB030E22BFB61A754640EA9C0024
:100920005B084FEA3202B6EB020E75EB030E22BFF4
:10093000B61A754640EADC0055EA060E18D04FEAB2
:10094000051545EA16754FEA06164FEAC30343EA52
:1009500052734FEAC2025FEA1C1CC0D111F4801F1F
:100960000BD141EA00014FF000004FF0004CB6E718
:1009700011F4801F04BF01430020B4F1FD0C88BFB7
:10098000BCF5E06F3FF6AFAEB5EB030C04BFB6EBC2
:10099000020C5FEA500C50F1000041EB045170BDB5
:1009A0000EF0004E4EEA113114EB5C04C2BFD4EBE2
:1009B0000C0541EA045170BD41F480114FF0000E66
:1009C000013C90E645EA060E8DE60CEA135594EAE2
:1009D0000C0F08BF95EA0C0F3FF43BAF94EA0C0FE5
:1009E0000AD150EA01347FF434AF95EA0C0F7FF45A
:1009F00025AF104619462CE795EA0C0F06D152EAAE
:100A000003353FF4FDAE1046194622E750EA410691
:100A100018BF52EA43067FF4C5AE50EA41047FF4A2
:100A20000DAF52EA43057FF4EBAE12E74FF0FF3C07
:100A300006E000BF4FF0010C02E000BF4FF0010CD8
:100A40004DF804CD4FEA410C7FEA6C5C4FEA430C51
:100A500018BF7FEA6C5C1BD001B050EA410C0CBFA0
:100A600052EA430C91EA030F02BF90EA020F002002
:100A7000704710F1000F91EA030F58BF994208BF69
:100A800090422CBFD8176FEAE37040F00100704726
:100A90004FEA410C7FEA6C5C02D150EA013C07D17D
:100AA0004FEA430C7FEA6C5CD6D152EA033CD3D0C8
:100AB0005DF8040B704700BF8446104662468C46C2
:100AC0001946634600E000BF01B5FFF7B7FF0028F5
:100AD00048BF10F1000F01BD4DF808EDFFF7F4FF1E
:100AE0000CBF012000205DF808FB00BF4DF808EDA9
:100AF000FFF7EAFF34BF012000205DF808FB00BFCC
:100B00004DF808EDFFF7E0FF94BF012000205DF8ED
:100B100008FB00BF4DF808EDFFF7CEFF94BF0120A2
:100B200000205DF808FB00BF4DF808EDFFF7C4FF9B
:100B300034BF012000205DF808FB00BF4FEA410CE4
:100B40007FEA6C5C02D150EA013C0AD14FEA430CC7
:100B50007FEA6C5C02D152EA033C02D14FF0000004
:100B600070474FF0010070474FEA410212F5001242
:100B700015D211D56FF47873B3EB625212D94FEAE4
:100B8000C12343F0004343EA505311F0004F23FACE
:100B900002F018BF404270474FF00000704750EA23
:100BA000013005D111F0004008BF6FF000407047E0
:100BB0004FF00000704700BF4A0011D212F500123A
:100BC00011D20DD56FF47873B3EB62520ED44FEAA5
:100BD000C12343F0004343EA505323FA02F0704725
:100BE0004FF00000704750EA013002D14FF0FF3063
:100BF00070474FF0000070474FEA4102B2F1E04306
:100C000024BFB3F5001CDCF1FE5C0DD901F0004CF3
:100C10004FEAC0024CEA5070B2F1004F40EB830043
:100C200008BF20F00100704711F0804F21D113F16F
:100C30003872BCBF01F00040704741F480114FEAA8
:100C40005252C2F11802C2F1200C10FA0CF320FA31
:100C500002F018BF40F001004FEAC1234FEAD3234E
:100C600003FA0CFC40EA0C0023FA02F34FEA4303B8
:100C7000CCE77FEA625307D150EA01331EBF4FF041
:100C8000FE4040F44000704701F0004040F0FE405C
:100C900040F40000704700BF53B94AB9002908BFAB
:100CA00000281CBF4FF0FF314FF0FF3000F00CB8B0
:100CB000ADF1080C6DE904CE10F074FBDDF804E032
:100CC000DDE9022304B07047704700BF10B5054C42
:100CD000237833B9044B13B10448AFF300800123E8
:100CE000237010BD180300200000000060160108EA
:100CF00008B5034B1BB103490348AFF3008008BD9F
:100D0000000000001C030020601601087F2817D98E
:100D100031B1FF2813D880380A4B33F810007047E0
:100D200000237F2B07D8074A32F81320824202D0D3
:100D300001339BB2F5E703F18000C0B27047002099
:100D4000704700BF3C190108B0F5805F07D2234B04
:100D50001A88002A41D090423FD310B506E0204BBC
:100D6000F6E773461A88DAB1904219D303F1040EFC
:100D70005B88190ADBB203EB020C604504DB002937
:100D8000EFD10EEB4303EDE7082909D8DFE801F0C6
:100D900005090F1215181B1E2100841A3EF81400B5
:100DA00010BD831A03F00103C01A80B2F8E71038AF
:100DB00080B2F5E7203880B2F2E7303880B2EFE752
:100DC0001A3880B2ECE7083080B2E9E7503880B2D8
:100DD000E6E7A0F5E35080B2E2E770474817010864
:100DE0008C16010830B585B00446194D00224FF429
:100DF0008071284605F0D8FD0A2005F0D1F90122BE
:100E00004FF48071284605F0CFFD322005F0C8F977
:100E100001238DF80F304FF0FF3200920DF10F02D9
:100E20002A21204606F0ECFA10B1002005B030BDB2
:100E30004FF0FF33009301230DF10E022A212046CB
:100E400006F09AFB08B90120F0E70020EEE700BFAA
:100E50000004024009B310B584B00C46642300932B
:100E6000062302AA2A2106F087FBC0B99DF80830A4
:100E700023709DF8093063709DF80A309DF80B20AF
:100E800043EA022363809DF80C309DF80D2043EA6D
:100E90000223A380012004B010BD00207047002071
:100EA000F9E7000008B5044B03EB80025268526872
:100EB0000344187A904708BD68050020094B1B5C65
:100EC00073B910B50446074B03EB800252681268F1
:100ED0000344187A904710B9024B01221A5510BDED
:100EE000002070476805002038B5044C04EB8005ED
:100EF0006D68AD680444207AA84738BD68050020B5
:100F000038B5044C04EB80056D68ED680444207A24
:100F1000A84738BD6805002010B5044B03EB8004DA
:100F2000646824690344187AA04710BD680500204E
:100F300008B502F069FD08BD08B502F0FBFC08BD6C
:100F40002DE9F04F85B005460E4617469B46BDF885
:100F50003880121A002AB8BF52420FFA82F95B1A7F
:100F6000002BB8BF5B420FFA83FA874211DD0121E3
:100F70000291B34511DD0121039192B200929BB21F
:100F80000193D41A24B2424659463846FFF7D4FF9B
:100F900021E04FF0FF310291EBE74FF0FF31039179
:100FA000EBE7424631462846FFF7C6FFA2B25300A0
:100FB0001BB2CAF100018B4205DD0199521A14B22D
:100FC000029A15442DB2994505DD009B1C4424B2BC
:100FD000039B1E4436B2BD42E3D15E45E1D105B06C
:100FE000BDE8F08F2DE9F04F85B080468946144664
:100FF0000392BDF838A0BDF83C1001919DF84070F7
:101000001946104602F022FB064602F029FB05466F
:10101000304602F027FB0290023664B34FF0000B1B
:1010200071E004EB08000BEB0901524609B200B273
:10103000FFF782FF0134E4B2AC4213D216F80B3052
:10104000C4F10702134113F0010FEAD1002FF1D1CF
:1010500004EB08000BEB0901019A09B200B2FFF79B
:101060006BFFE7E70BF1010B5FFA8BFB029B9B45E4
:101070004ED2039CE0E7DDF80CB0F7E716F81B3022
:10108000C4F10702134113F0010F0AD1E7B904EBD1
:1010900008000BEB0901019A09B200B2FFF74CFFFF
:1010A00012E004EB08000BEB0901524609B200B252
:1010B000FFF742FF08E004EB08000BEB0901524682
:1010C00009B200B2FFF738FF0134E4B2AC4216D2E5
:1010D000072CD3D906EB4B035B78C4F10F02134105
:1010E00013F0010FE7D1002FEED104EB08000BEB5A
:1010F0000901019A09B200B2FFF71EFFE4E70BF104
:10110000010B5FFA8BFB029B9B4501D20024DDE7BC
:10111000284605B0BDE8F08F10B582B0BDF810408C
:10112000009402F027FC02B010BD000000B583B0AF
:101130000090064BB3F90030054AB2F900200021B7
:101140000846FFF7E9FF03B05DF804FB3403002015
:101150003603002008B50020FFF7E8FF08BD0000B7
:1011600008B502F077FC02F071FC044B188002F025
:101170006FFC034B1880FFF7EDFF08BD360300201E
:101180003403002010B582B09E46BDF81040904256
:1011900007D09446994219D00094FFF7D1FE02B0CF
:1011A00010BD994209DDCB1A9BB2013300941BB2EA
:1011B00001227146FFF7B0FFF1E75B1A9BB20133E2
:1011C00000941BB20122FFF7A7FFE8E7904209DD78
:1011D000821A92B201320094012312B26046FFF7E4
:1011E0009BFFDCE7121A92B201320094012312B283
:1011F000FFF792FFD3E72DE9F04F85B002900391FE
:101200009B4617465200C2F101064FF0000A0FE05C
:10121000012B34DC0AF1010A4FEA4A0301331E4470
:1012200006E00AF1010AAAEB070306EB4306013FB9
:10123000002F31DB1FFA8AF9BDF8085009EB0500D1
:1012400000B2BDF80C40BBB2A4EB03080FFA88F85B
:101250001C4424B2CDF800B0234602464146FFF7B5
:1012600091FFA5EB090000B2CDF800B0234602467D
:101270004146FFF787FFBB195B00002EC8DBA6EBDA
:101280000A035B00002ECCDD012BCADD013F7B0091
:10129000C3F101031E44CBE705B0BDE8F08F10B5E4
:1012A00084B00124029400240194BDF818400094F5
:1012B000FFF798FE04B010BD10B584B0002402946E
:1012C000BDF81C400194BDF818400094FFF78AFE59
:1012D00004B010BD2DE9F04F85B003900E46904646
:1012E0001C46BDF838A0BDF83CB09DF840900546BE
:1012F0000820002710E0064436B20CE0CDF804B018
:10130000CDF800A0424631462846FFF7D5FF2844D5
:1013100005B214E0039D0134D7B923780A2BEAD033
:101320000D2BF7D093B1B9F1000FE7D0CDF800A0A5
:10133000424631462846FFF7B2FF284405B22178DD
:10134000404602F083F902F08DF9E4E70127E2E775
:10135000284605B0BDE8F08F10B584B00124029492
:1013600000240194BDF818400094FFF7B3FF04B0C7
:1013700010BD000000EB0010014B03EB4000704774
:101380003C1A0108392816D8202822D3A0F12003BE
:10139000192B0ED8DFE803F01F0D0D0D0D1B0D0DE1
:1013A0000D0D0D0D0D0D190D131313131313131331
:1013B000131300207047B0280FD109487047303808
:1013C0003222084B02FB003070470748704707483D
:1013D000704700207047064870470020704700BFE4
:1013E000803C01081C3D0108B43C01083C3C01085C
:1013F000E83C01083A2817D8202828D3A0F1200378
:101400001A2B0FD8DFE803F0250E0E0E0E1D0E0E60
:101410000E0E0E0E0E1F1B0E14141414141414149E
:101420001414210000207047B02814D10B487047D5
:10143000303800EB40100A4B03EB4000704709487E
:1014400070470948704709487047094870470020AD
:101450007047084870470020704700BFDC3F010814
:10146000A840010820400108983F0108543F0108A6
:10147000103F01086440010800EB8000014B03EBC2
:10148000400070473C43010808B50349034802F097
:10149000D7F8034B187008BD380300203C0100202A
:1014A0003C03002010B586B0124C0022694620464D
:1014B00008F0FDFA002205A9204608F01EFB9DF861
:1014C00017206C3A9DF815305B0543EA42639DF89E
:1014D000162043EA02439DF8002043EAC2239DF808
:1014E000012043EA42139DF8020043EA500006B08F
:1014F00010BD00BFDCD00120014B00221A707047E4
:101500003D030020014B1878704700BF3D030020C9
:1015100000B583B08DF80700074808F0E7FE012802
:10152000FAD14FF47A7301220DF10701024808F055
:1015300010FC03B05DF804FB2CD0012008B500229C
:101540000221024805F030FA08BD00BF0008024041
:1015500008B501220221024805F026FA08BD00BFA5
:101560000008024000B585B0FF238DF80F3000233E
:101570008DF80E300A4808F0B9FE0128FAD14FF470
:101580007A73009301230DF10E020DF10F0104484F
:1015900008F0C1FC9DF80E0005B05DF804FB00BF2B
:1015A0002CD0012010B582B0FFF7D2FF002403E059
:1015B000FF20FFF7ADFF0134092CF9DDFFF7BEFF77
:1015C00040238DF8003000248DF801408DF8024052
:1015D0008DF803408DF8044095238DF8053007E021
:1015E00004F108036B4413F8080CFFF791FF013472
:1015F000052CF5DD41F6FF74FFF7B4FF012802D09A
:101600000CB1013CF8E7FFF7A3FFFF20FFF780FFD5
:10161000024B01221A7002B010BD00BF3D03002032
:1016200008B5074B32221A70FFF79CFFFFF79AFFAD
:10163000FF2803D0024B1B78002BF7D108BD00BF59
:101640001CD2012038B505460C46FFF7E9FFFF28FC
:1016500001D0FF2038BD2846FFF75AFF200EFFF7C4
:1016600057FFC4F30740FFF753FFC4F30720FFF70A
:101670004FFFE0B2FFF74CFF402D11D0482D11D0A5
:101680000020FFF745FF4C2D0ED00A24FFF76AFF1C
:1016900010F0800FDED0631E13F0FF04F6D1D9E7FF
:1016A0009520EEE78720ECE7FFF75CFFEDE710B54C
:1016B0000446FFF757FF207010BD000070B50446C8
:1016C0000E460F4B0A221A70FFF74CFFFF2803D17A
:1016D0000B4B1B78002BF7D1FE280FD1651C204641
:1016E000FFF7E5FF28460234FFF7E1FF023EF5D1A0
:1016F000FFF738FFFFF736FF012070BD0020FCE741
:101700001DD2012070B505460C46FFF789FFFF2862
:1017100001D0002070BD00262046FFF7F9FEFD2C09
:101720001FD034462878FFF7F3FE68780235FFF7BC
:10173000EFFE631E13F0FF04F4D1FFF713FFFFF772
:1017400011FF402C09D8FFF70DFF064600F01F03DC
:10175000052B02D0631CDCB2F3E7FFF703FF002880
:10176000FBD006F01F06052E01D00020D2E7012095
:10177000D0E70000002840F0B68030B583B05B4B66
:101780001B7813F0020404D0584B1878C0B203B091
:1017900030BDFFF707FFFFF7D1FE00214020FFF724
:1017A00051FF0546012811D0514B1C70FFF7D0FEA8
:1017B000FFF7D8FE002C00F093804C4A137803F01A
:1017C000FE031370494B1878C0B2E0E7494B64221E
:1017D0001A704FF4D5714820FFF734FF012846D125
:1017E000254608E0FFF7BEFE05F108036B4403F849
:1017F000040C0135EDB2032DF4D99DF80630012B10
:10180000D2D19DF80730AA2BCED102E0394B1B78FC
:1018100063B100217720FFF715FF0128F6D84FF0BC
:1018200080416920FFF70EFF0028EFD1314B1B7874
:1018300003F0FF020BB91446B6E700217A20FFF748
:1018400001FF05460028AFD1032D09D8FFF78AFE16
:1018500005F108036B4403F8040C0135EDB2F3E71E
:101860009DF8043013F0400F38D006249CE7002187
:101870007720FFF7E7FE012810D800216920FFF745
:10188000E1FE01280AD8022508E000217720FFF7B1
:10189000D9FE012811D9174B1B783BB1022DF4D08A
:1018A00000214120FFF7CEFE0028F4D1114B1B7818
:1018B00003F0FF0243B9144676E700216920FFF7E1
:1018C000C1FE0028E7D1F1E74FF400715020FFF787
:1018D000B9FE00287FF468AF2C4665E7022463E771
:1018E000FFF70AFE6EE70120704700BF00000020EE
:1018F0003E0300201DD2012018B9034B1878C0B256
:1019000070470120704700BF0000002000283ED132
:1019100070B50D4616461C46002B3AD01F4B1B785F
:1019200013F0010F37D11E4B1B7813F0040F00D1B9
:101930005602FFF703FE012C1AD031465220FFF762
:1019400081FE68B94FF400712846FFF7B7FE18B161
:1019500005F50075013CF5D100214C20FFF772FE22
:10196000FFF7F6FDFFF7FEFD201E18BF012070BD3A
:1019700031465120FFF766FE0028F1D14FF4007187
:101980002846FFF79BFE0028EAD00024E8E7042061
:1019900070470420EBE70320E9E700BF00000020C8
:1019A0003E030020002852D170B50D4616461C4655
:1019B000002B4ED02A4B1B7813F0010F4BD1284B34
:1019C0001B7813F0040F48D1264B1B7813F0040F3B
:1019D00000D15602FFF7B2FD012C1FD0214B1B781E
:1019E00013F0020F28D131465920FFF72BFE68B9BA
:1019F000FC212846FFF786FE18B105F50075013C6D
:101A0000F6D1FD210020FFF77DFEF0B1FFF7A0FD2C
:101A1000FFF7A8FD201E18BF012070BD31465820D9
:101A2000FFF710FE0028F1D1FE212846FFF76AFEDD
:101A30000028EBD00024E9E700217720FFF702FE21
:101A400021465720FFF7FEFDCDE70124DEE7042005
:101A500070470420E1E70320DFE70220DDE700BF55
:101A6000000000203E03002070B584B0002840F044
:101A7000B7800D4616460446052913D05B4B1C78EB
:101A800014F0010440F0B080FFF758FD0D2D00F276
:101A90009B80DFE805F063205F999999999999995E
:101AA000996978871578012D0ED0022D0FD0002D61
:101AB00040F09880FFF726FD0446002800F089805A
:101AC000FFF71AFD2C4684E0FFF76CFD81E0FFF77D
:101AD00019FD70707DE000214920FFF7B3FD044639
:101AE00008B12C4671E010216846FFF7E7FD002899
:101AF00072D09DF800309B09012B1FD09DF8052066
:101B000002F00F029DF80A3002EBD3129DF8093063
:101B10005B0003F006031A449DF808309DF8071097
:101B20009B0903EB81039DF80610890201F44061D3
:101B30000B440133073A9340336046E09DF8093087
:101B40009DF8082003EB02239BB201339BB29B025A
:101B500033603AE04FF40073338036E0FFF760FD06
:101B6000FF283BD0012430E000214920FFF76AFD27
:101B7000044608B1012428E010213046FFF79EFDFD
:101B800018BB012421E000214A20FFF75BFD044639
:101B900008B1012419E010213046FFF78FFDA0B9EC
:101BA000012412E000217A20FFF74CFD044638B1F1
:101BB00004240AE0FFF7D6FC06F8010B0134E4B276
:101BC000032CF7D9042400E00424FFF7C1FCFFF73D
:101BD000C9FC204604B070BD2C46F6E72C46F4E75D
:101BE0000424F6E70424F4E70324F2E700000020CD
:101BF0004278007840EA02207047C378827842EA4F
:101C00000322437843EA0223007840EA0320704726
:101C10000170090A417070470170C1F307234370D6
:101C2000C1F307438370090EC1707047944632B107
:101C30000A78013102700130BCF1010CF8D1704713
:101C400001700130013AFBD1704784469CF80000D6
:101C50000CF1010C0B780131C01A013A01D00028B7
:101C6000F4D07047034600E00133187808B1884289
:101C7000FAD1704730B400252B4601E0012501332D
:101C8000012B15D81A01174CA258002AF6D0046867
:101C9000A242F4D1134A02EB0312546882689442C0
:101CA000EDD1104A02EB0312946842699442E6D1E6
:101CB000022B0AD0A1B90B4A02EB03139B89B3F59F
:101CC000807F0BD0002030BC70472DB9022901D095
:101CD0001220F8E70020F6E70020F4E71020F2E7F2
:101CE0001020F0E740050020002000E0013001282E
:101CF00004D80301034AD358002BF7D1023818BF88
:101D0000012070474005002070B4002300E001333B
:101D1000012B13D81A01234CA45802689442F6D11F
:101D2000204A02EB0312546882689442EFD11D4AA4
:101D300002EB0312946842699442E8D1022B08D066
:101D4000F9B1184A02EB031292894ABB4FF4807230
:101D50001DE00023012B05D81A01124CA2580AB12C
:101D60000133F7E7022B19D00E4D1C0105EB0312CE
:101D700006682E518468546040699060002090810C
:101D8000DEE7084A02EB03129289013292B205495A
:101D900001EB03118A81581C70BC70470020FBE7DF
:101DA0000020F9E7400500200138012815D80D4B27
:101DB00003EB00139B89B3F5807F03D043B1013B54
:101DC0009BB200E00023074A02EB0012938133B973
:101DD00003010020034AD0507047022070470020C2
:101DE000704700BF40050020002303E05DF8044B6E
:101DF00070470133012B11D81A0109498A588242D0
:101E0000F7D110B41A0100248C500133012BEDD806
:101E10001A0103498A588242F7D1F3E7704700BF9D
:101E2000400500200239C369023B8B4204D9438933
:101E3000006B01FB03007047002070470268C36A13
:101E400004339089B1FBF0F15289B1FBF2F101E06A
:101E5000091A0833186818B18142F9D25868084441
:101E6000704770B506460D4601F11A00FFF7C0FE37
:101E70003378032B00D070BD044605F11400FFF742
:101E8000B7FE44EA0040F6E770B506460C46154634
:101E900091B204F11A00FFF7BBFE3378032B00D098
:101EA00070BD290C04F11400FFF7B2FEF8E7000042
:101EB0002DE9F84380460F4691464B730F23CB72B2
:101EC00000240C73214607F11A00FFF7A1FE09F167
:101ED000FF3606EB460306EB8306254602E0013497
:101EE0000C2C11D84FF6FF739D4202D038F81650D3
:101EF00001360C4B185D29463844FFF789FE002D4A
:101F0000EDD14FF6FF75EAE74FF6FF739D4202D021
:101F100038F816300BB949F0400987F80090BDE851
:101F2000F88300BFFC4E010870B582B00546164626
:101F30001C460B22FFF77AFE052C11D807231FE061
:101F400001310F290CD803F0010C0CEB44045B08A1
:101F500014F4803FF4D084F4883484F02104EFE753
:101F60003388002BEAD002360021EAE75A1E0833F4
:101F70006B4403F8081C21090F2C0AD913460C46A0
:101F800004F00F0202F130013929EFD902F13701D3
:101F9000ECE77E2102F108036B4403F8081C0023E0
:101FA00000E00133934209D2E95C2029F9D105E030
:101FB0002020591CE854072909D80B46072AF7D8CE
:101FC00002F10801694411F8080C0132F1E702B08E
:101FD00070BD01464FF00B0C0020C30143EA5003D3
:101FE0000A78013152FA83F3D8B2BCF1010CF4D172
:101FF00070470146006838B1024613781F2B06D996
:102000003A2B04D00132F8E74FF0FF3070473A2BFB
:1020100001D00020704710B4034613F8010B30388C
:10202000092808D89A4202D04FF0FF3005E038B9AD
:1020300001320A6001E04FF0FF305DF8044B704759
:102040004FF0FF30F9E738B50D46044698B1036804
:102050009BB11A78A2B18188DA88914203D0092015
:1020600000242C6038BD5878FEF71CFF10F00100EA
:1020700009D12468F5E70920F3E71C460920F0E7B9
:1020800009200024EDE709200024EAE72DE9F041CA
:10209000C57815B92846BDE8F0810446476B00F1C4
:1020A000380801233A4641464078FEF729FF0546A5
:1020B000A0B90023E370A36AFB1A226A9342E9D213
:1020C000A67808E0236A1F4401233A464146607817
:1020D000FEF716FF013E012EF4D8DBE70125D9E714
:1020E00070B5436B8B4202D10026304670BD04466A
:1020F0000D46FFF7CBFF06460028F6D101232A46FE
:1021000004F138016078FEF7EFFE10B101264FF0C0
:10211000FF356563E9E7000038B504460023C37066
:102120004FF0FF334363FFF7DBFF30BB054604F29C
:102130003620FFF75DFD4AF6552398421FD194F8EB
:102140003830E92B07D0A36B03F0FF130D4A9342FD
:1021500001D0022514E004F16E00FFF74EFD20F0DF
:102160007F40094B98420BD004F18A00FFF745FDF0
:10217000064B984204D0022502E0042500E0032526
:10218000284638BDEB009000464154004641543388
:102190002DE9F04F87B00D46164600230B60FFF780
:1021A00028FF071EC0F26981BE4B53F82740002C60
:1021B00000F068812C6006F0FE06237873B1607829
:1021C000FEF770FE10F0010508D1002E00F05681D8
:1021D00010F0040F00F052810A254FE10023237014
:1021E000F8B26070FEF76AFE10F0010F40F04C810B
:1021F0001EB110F0040F40F0498104F10C020221DD
:102200006078FEF789FE0546002840F04181A289EA
:10221000A2F500739BB2B3F5606F00F23B81531ED1
:102220001A4201D0012529E100212046FFF774FF61
:10223000022800F088800026042800F02D81012863
:1022400000F22C8104F14300FFF7D2FCB4F80C80BB
:10225000404540F0258104F14E00FFF7C9FC0746D8
:1022600020B904F15C00FFF7C8FC0746276294F828
:102270004820A270531EDBB2012B00F21D8107FB28
:1022800002F3009394F84590A4F80A90B9F1000F76
:1022900000F0148109F1FF3319EA030F40F01081B7
:1022A00004F14900FFF7A4FC824620814FEA581B45
:1022B000B0FBFBF30BFB13039BB2002B40F002813E
:1022C00004F14B00FFF794FC019020B904F1580091
:1022D000FFF793FC019004F14600FFF789FC0146EB
:1022E000002800F0F180009BC318BAFBFBFB5B44A5
:1022F000019A9A42C0F0EA80D21AB2FBF9F04A453C
:10230000C0F0E6804FF6F572904234D840F6F57290
:1023100090426CD94FF0020B2FE0002006AB03EB8C
:10232000860343F8100C0136032E0ED804F1380052
:10233000330103F5DF7318440379002BEDD0083027
:10234000FFF75BFCEAE70026EEE700270AE03146EC
:102350002046FFF7E1FE01287FF66EAF0137032F1D
:102360003FF66AAF06AB03EB870353F8106C002E01
:10237000EDD10320F2E74FF0030B00F10209C4F89E
:102380001C9066628A19A26233442363BBF1030F77
:1023900030D0BAF1000F00F0A180009B1A44E26235
:1023A000BBF1020F37D009EB490209F0010303EB3F
:1023B00052034344013BB3FBF8F3BB4200F290806D
:1023C0004FF0FF33A361636180232371BBF1030FDF
:1023D00024D084F800B0344A138801339BB21380B0
:1023E000E380324B23612046FFF7FEFC46E04FF0CE
:1023F000010BC2E704F16200FFF7FAFB002869D184
:10240000BAF1000F68D104F16400FFF7F6FBE06257
:102410004FEA8903CDE74FEA4903CAE704F16800B0
:10242000FFF7E6FB0128D4D1711C2046FFF758FEC8
:102430000028CED10023237104F23620FFF7D8FB09
:102440004AF655239842C4D104F13800FFF7D5FB72
:10245000174B9842BDD104F50770FFF7CEFB154B23
:102460009842B6D104F50870FFF7C7FBA06104F5E8
:102470000970FFF7C2FB6061ABE70B25284607B088
:10248000BDE8F08F0C25F9E70325F7E70A25F5E706
:102490000125F3E70125F1E70125EFE70D25EDE73C
:1024A0000D25EBE7640500206005002040030020B7
:1024B00052526141727241610D25DFE70D25DDE762
:1024C0000D25DBE70D25D9E70D25D7E70D25D5E748
:1024D0000D25D3E70D25D1E70D25CFE70D25CDE758
:1024E0000D25CBE72DE9F047012940F28E80044607
:1024F0000D461746C3698B4240F28B800378022B4E
:1025000049D0032B60D0012B40F0858001EB5108AE
:10251000816A8389B8FBF3F31944FFF7E1FD0646AE
:10252000002873D104F1380A08F10109A389B8FB26
:10253000F3F203FB128815F0010522D01AF80830D7
:1025400003F00F0343EA0713DBB20AF80830012354
:10255000E370A16AA389B9FBF3F319442046FFF79E
:10256000BFFD0646002851D1A389B9FBF3F203FB56
:10257000129945B1C7F307130AF809300123E37034
:1025800044E0FBB2E1E71AF80930C7F3032223F075
:102590000F031343F0E7816A83895B08B5FBF3F30C
:1025A0001944FFF79DFD064680BB04F138006D001D
:1025B000A389B5FBF3F203FB1255B9B22844FFF728
:1025C00027FB0123E37021E0816A83899B08B5FB27
:1025D000F3F31944FFF784FD0646B8B927F07047B6
:1025E00004F13803AD00A289B5FBF2F102FB1155ED
:1025F0001D442846FFF701FB00F07041394328468F
:10260000FFF70AFB0123E37000E002263046BDE835
:10261000F0870226FAE70226F8E7F8B505680129EF
:102620006AD90C46EB698B4268D92B78022B35D0DE
:10263000032B49D0012B63D101EB5106A96AAB8969
:10264000B6FBF3F319442846FFF74AFD10B14FF0EB
:10265000FF3052E0771CAB89B6FBF3F203FB126646
:102660002E4496F83860A96AB7FBF3F3194428465C
:10267000FFF736FD002845D1AB89B7FBF3F203FB2A
:1026800012772F4497F8383046EA032014F0010FF0
:1026900001D0000931E0C0F30B002EE0A96AAB893C
:1026A0005B08B4FBF3F319442846FFF719FD60BB40
:1026B00005F138006400AB89B4FBF3F203FB12446C
:1026C0002044FFF795FA18E0A96AAB899B08B4FB90
:1026D000F3F319442846FFF703FDC8B905F13800A4
:1026E000A400AB89B4FBF3F203FB12442044FFF7D0
:1026F00084FA20F0704000E00120F8BD0120FCE7E2
:102700000120FAE74FF0FF30F7E74FF0FF30F4E732
:102710004FF0FF30F1E72DE9F041D0F80080B1F53E
:10272000001F49D207460E4611F01F0F47D14161E5
:1027300084681CBB98F80030022B01D9D8F82C40D3
:10274000E4B9B8F80830B3EB561F3AD9D8F82C30B2
:10275000FB61BC61FB69E3B3B8F80C20B6FBF2F295
:102760001344FB6108F13803B8F80C20B6FBF2F112
:1027700002FB11610B443B6200201EE0B8F80A50D6
:10278000B8F80C3003FB05F5AE420FD321463846AE
:10279000FFF743FF0446B0F1FF3F14D0012814D9DE
:1027A000D8F81C30834212D9761BEDE7214640460B
:1027B000FFF738FBF861CCE70220BDE8F08102208A
:1027C000FBE70220F9E70120F7E70220F5E7022006
:1027D000F3E70220F1E72DE9F041054606680F46D0
:1027E00051B9D6F81480B8F1000F12D0F3694345FF
:1027F00011D84FF001080EE0FFF70FFF0346012844
:1028000047D9B0F1FF3F49D0F269824246D8B84675
:1028100001E04FF0010844460CE021462846FFF74E
:10282000FCFE034678B1012838D0B0F1FF3F35D027
:10283000444532D00134F369A342EED8B8F1010F18
:1028400029D90224E9E74FF0FF3221463046FFF74D
:1028500049FE0346B0B977B9A3B97461B269F369A7
:10286000023B9A4201D8013AB261337943F0010345
:102870003371234612E0224639463046FFF732FED6
:102880000346E9E7012B01D0012307E04FF0FF33B6
:1028900004E0012302E0002300E000231846BDE825
:1028A000F081F8B50C46056801292ED90646114677
:1028B000EB69A3422BD94AB14FF0FF322846FFF70C
:1028C00011FE074610B123E0A24221D92746214636
:1028D0003046FFF7A2FE0446E0B101281CD0B0F15B
:1028E000FF3F1BD0002239462846FFF7FBFD074675
:1028F00070B9AB69EA69911E8B42E5D20133AB61D5
:102900002B7943F001032B71DEE7022700E0022759
:102910003846F8BD0027FBE70227F9E70127F7E76C
:102920002DE9F84306684469C369002B74D0054655
:102930000F462034B4F5001F70D2B189B4FBF1F218
:1029400001FB12423AB90133C3618169A1B93389EC
:10295000B3EB541F0CD96C6106F13803B289B4FB98
:10296000F2F102FB114423442B620020BDE8F883FE
:102970000023C3610420F9E7B289B4FBF2F2738942
:10298000013B12EA0308E6D1FFF747FE8146012822
:1029900046D9B0F1FF3F45D0F369834234D88FB1B7
:1029A000A9692846FFF717FF814600283CD0012877
:1029B0003CD0B0F1FF3F3BD03046FFF767FB28B17A
:1029C0000120D3E70023EB610420CFE7B289002187
:1029D00006F13800FFF734F949463046FFF722FA8E
:1029E0007063738998450BD20123F3703046FFF76B
:1029F0004DFBF8B908F10108736B01337363F0E71D
:102A0000736BA3EB08037363C5F81890494630460F
:102A1000FFF708FAE8619EE70420A7E70420A5E78E
:102A20000220A3E70120A1E707209FE702209DE7FE
:102A300001209BE7012099E7F8B504460E46076898
:102A40000021FFF768FE0246C0B9002508E0013505
:102A5000B54213D001212046FFF762FF024668B954
:102A6000E1693846FFF73CFB024638B9236A1B7818
:102A7000E52BECD0002BEAD00025EBE7042A01D0AF
:102A80001046F8BD0722FBE770B50446FFF7FEFAD3
:102A9000054648B92378032B08D0002211466078F8
:102AA000FEF73AFA00B10125284670BD2379012BC3
:102AB000F3D104F13806A28900213046FFF7C0F8AF
:102AC0004AF6552104F23620FFF7A2F80E493046A7
:102AD000FFF7A2F80D4904F50770FFF79DF8A1690B
:102AE00004F50870FFF798F8616904F50970FFF7BD
:102AF00093F8626A01326263012331466078FEF71F
:102B0000FFF900232371C8E752526141727241619B
:102B10002DE9F04F83B007468A46D1F8009003684C
:102B20001D690024234612E0013619F806302F2BC8
:102B3000FAD05C2BF8D04E44CAF800601F2823D886
:102B40004FF0040824E025F81480013433465E1C5D
:102B500019F803001F28EED92F28E6D05C28E4D00E
:102B6000FE2C00F2DF800121FEF7D0F8804600281D
:102B700000F0DA807F28E6D801466D48FFF772F84A
:102B80000028E0D0062085E04FF0000800E0013C7E
:102B900044B104F10043013B35F81330202BF6D04B
:102BA0002E2BF4D0002325F81430002C00F0BE802A
:102BB0000B22202107F12400FFF742F8002300E058
:102BC000013335F81320202AFAD02E2AF8D01BB171
:102BD00048F0030800E0013C6CB104F10042013A06
:102BE00035F812202E2AF6D14FF0080B4FF0000ACC
:102BF000CDF804A00AE0A2464FF0080B0022019293
:102C000004E04C450BD048F003084B4603F10109A2
:102C100035F81360FEB1202EF5D02E2EF1D0DA4516
:102C200010D24C450ED07F2E44D8002E4FD148F004
:102C300003085F2607EB0A0383F824604B460AF17A
:102C4000010AE3E7BBF10B0F27D04C4501D048F058
:102C500003084C4524D297F82430E52B53D0BBF120
:102C6000080F54D0019B03F00C020C2A03D003F090
:102C70000303032B01D148F0020818F0020F06D11C
:102C8000019B03F00303012B46D0042A47D087F8A9
:102C90002F80002003B0BDE8F08F48F00308DAE78A
:102CA000019B9B00DBB2019323464FF00B0B4FF0CF
:102CB000080AABE700213046FEF728F8064618B1AF
:102CC000A0F180061B4B9E5D48F00208ADE731463F
:102CD0001948FEF7C7FF0028A9D1A6F141039BB20E
:102CE000192B04D8019B43F002030193A2E7A6F13C
:102CF00061039BB2192B9DD8019B43F00103019303
:102D0000203EB6B296E7052387F82430A7E7019B5B
:102D10009B00DBB20193A5E748F01008B5E748F047
:102D20000808B4E70620B5E70620B3E70620B1E7B8
:102D30003C4D01080C4F0108484D01082DE9F047B2
:102D400081460F4601F11A00FEF752FFC8BB3E78DC
:102D500006F03F06013E06EB460306EB83064FF006
:102D60000108002506E000202CE04FF6FF73984292
:102D70002AD101350C2D18D8174B585D3844FEF771
:102D800037FF0446B8F1000FEFD0FE2EEBD8FDF769
:102D9000DBFF804606F1010A39F81600FDF7D4FF83
:102DA0008045E0D1A0465646E3E73B7813F0400F5C
:102DB0000CD0B8F1000F0BD039F8163053B9012000
:102DC00000E00020BDE8F0870020FBE70120F9E7E4
:102DD0000120F7E70020F5E7FC4E01082DE9F84354
:102DE0000446D0F800800021FFF795FC0646002835
:102DF00064D14FF0FF3323634FF0FF094F460AE0E1
:102E00004FF0FF332363FF2700212046FFF788FDA3
:102E10000646002852D1E1694046FFF761F90646AF
:102E200000284BD1256A2B78002B46D0EA7A02F095
:102E30003F01A171E52BE3D012F0080F14D00F2948
:102E4000DED194F82F2012F0400FDDD113F0400FA7
:102E500006D095F80D9003F0BF03626922631F4608
:102E6000BB421AD0FF27CFE70F29EAD027B928465F
:102E7000FFF7AFF8484521D094F82F3013F0010F39
:102E800006D10B2204F124012846FEF7DEFEA8B18C
:102E90004FF0FF332363FF27B6E76B7B4B4501D031
:102EA000FF27B1E72946D8F81000FFF747FF10B118
:102EB000013FFFB2A8E7FF27A6E704263046BDE89A
:102EC000F88330B583B004460191056801E0013311
:102ED0000193019B1A782F2AF9D05C2AF7D000229F
:102EE000A2601B781F2B21D901A92046FFF710FEF5
:102EF000034618BB2046FFF771FF94F82F200346C6
:102F0000F8B912F0040F19D1A37913F0100F1FD0E4
:102F100005F138016369AA89B3FBF2F002FB1033B3
:102F200019442846FEF79DFFA060DDE7802384F862
:102F30002F3011462046FFF7EEFB0346184603B03C
:102F400030BD0428FAD112F0040FF7D10523F5E7BC
:102F50000523F3E72DE9F04385B0066890F82F309C
:102F600013F0A00F40F08A800746002400E00134EF
:102F7000336933F81430002BF9D107F124080C22FF
:102F8000414601A8FEF752FE9DF80F3013F0010FE5
:102F90001CD0402387F82F30012500E00135632D38
:102FA0000BD82B46326901A94046FEF7BDFF3846D3
:102FB000FFF714FF81460028F0D0642D64D0B9F1EA
:102FC000040F5DD19DF80F3087F82F309DF80F303A
:102FD00013F0020F06D00C342D4BA3FB0434A408CD
:102FE000013400E0012421463846FFF725FD8146E3
:102FF000002845D1013C1CD1B9F1000F40D1F9693D
:103000003046FFF76DF88146002839D12022002193
:10301000386AFEF715FE0B224146386AFEF706FEB7
:1030200097F82F303A6A03F0180313730123F370F3
:1030300026E07969A1EB44113846FFF76CFB814625
:10304000F0B94046FEF7C5FF0546F9693046FFF77F
:1030500047F881460028CFD12B46E2B2396A306961
:10306000FEF726FF0123F37000213846FFF758FCD6
:1030700081460028C0D1013CE7D1BDE74FF00609E9
:10308000484605B0BDE8F0834FF00709F8E700BFF8
:103090004FECC44E70B584B0019000911646039178
:1030A00003A8FEF7A6FF041E1CDB104B53F82450A8
:1030B00025B12846FEF798FE00232B70019B0BB12B
:1030C00000221A70019B094A42F8243063B1012E94
:1030D00002D0002004B070BD002201A96846FFF7AD
:1030E00057F8F7E70B20F5E70020F3E76405002029
:1030F0002DE9F04391B00191002800F00C811446B5
:10310000064602F03F073A4602A901A8FFF740F839
:10311000054628B100233360284611B0BDE8F0838E
:10312000029B0393019903A8FFF7CBFE054660B904
:103130009DF93B30002B52DB14F03E0F14BF0121F0
:10314000002103A8FEF796FD054614F01C0F5CD085
:10315000002D50D0042D44D047F00807002DD9D1C0
:1031600017F0080F61D0FEF79DF9044601460B9851
:103170000E30FEF751FD21460B981630FEF74CFD40
:103180000B9B2022DA72DDF80880DDF82C9049468E
:103190004046FEF766FE0446002249464046FEF7DA
:1031A00073FE00210B981C30FEF736FD029B0122B6
:1031B000DA70002C39D0029BD3F8348000222146EB
:1031C00003A8FFF76EFB05460028A3D141460298ED
:1031D000FEF786FF0546013C029B5C6125E0062563
:1031E000B3E7FEF781FD08B91225B5E703A8FFF79D
:1031F000B1FE0546B0E79DF8123013F0110F13D160
:1032000014F0040FAAD0082584E7002D82D19DF880
:10321000123013F0100F7AD114F0020F05D013F012
:10322000010F02D0072575E70725002D7FF472AF47
:1032300017F0080F01D047F04007029B5B6B7362E9
:103240000B9BB362012F94BF0021012103A8FEF75D
:103250005BFD306108B902255CE7029CDDF82C803B
:1032600041462046FEF7FDFDB06008F11C00FEF768
:10327000C4FCF0600021F1623460E388B3803775EC
:1032800071753162B16106F130084FF480524046E9
:10329000FEF7D6FC17F0200F35D0F4689CB3B4616C
:1032A000029B5F899B8903FB07F7B16801E0022558
:1032B000E41B65B9BC420AD93046FFF7AEF90146B6
:1032C0000128F4D9B0F1FF3FF2D10125F0E7F16117
:1032D000002D7FF41FAF029FB7F80C90B4FBF9F3F9
:1032E00009FB13437BB13846FEF79CFD08B9022564
:1032F00010E7B4FBF9F202443262012341467878C8
:10330000FDF7F2FD28B9002D3FF406AF02E70425D2
:1033100000E70125FEE60925FEE62DE9F04F85B020
:1033200004460F46154698460023C8F8003003A906
:10333000FEF789FE019000284AD1637D0193002B9E
:1033400046D1237D13F0020F00F0EC80A369EB421D
:10335000C0F0B680DD43B3E0E36A002B3CD02046EA
:10336000FEF76CFD002800F0D880012839D0B0F1BC
:10337000FF3F3DD0E061A36803B9A06094F9143029
:10338000002B3CDBDDF80CB0E1695846FEF74AFD46
:103390008146002848D0B144BBF80C30B5FBF3FAA5
:1033A000AB425FD806EB0A03BBF80A20934201D96F
:1033B000A2EB060A53464A4639469BF80100FDF740
:1033C0009FFDC0B34FF0010A84F815A0CDF804A00A
:1033D000019805B0BDE8F08FE1692046FFF7FBF9E1
:1033E000C0E74FF0020A84F815A0CDF804A0EFE77B
:1033F0004FF0010A84F815A0CDF804A0E8E70123F6
:10340000226A04F1300103984078FDF779FD20B974
:10341000237D03F07F032375B4E74FF0010A84F89E
:1034200015A0CDF804A0D3E74FF0020A84F815A048
:10343000CDF804A0CCE7236AA3EB0903534504D3DA
:10344000039B9E890AFB06F62BE0039A928902FBF6
:10345000037104F13000FEF7E9FB237D03F07F03E5
:103460002375EDE7236A4B4503D0A269E3689A42CE
:1034700042D3C4F82090039B9E89A369B3FBF6F264
:1034800006FB1233F61AB54200D22E4604F1300084
:10349000324639461844FEF7C9FB237D63F07F03AB
:1034A00023753744A3693344A361E268934238BF6C
:1034B0001346E360D8F800303344C8F80030AD1B41
:1034C0005DB3A169039A9689B1FBF6F306FB13136A
:1034D000002BD0D1B1FBF6F65389013B1E407FF49F
:1034E0004DAF00297FF438AFA06800287FF43DAFCE
:1034F0002046FFF770F935E701234A4604F1300111
:103500009BF80100FDF7F0FC0028B2D04FF0010A53
:1035100084F815A0CDF804A05AE7237D43F04003BA
:10352000237555E70723019352E770B582B004462F
:1035300001A9FEF788FD70B9237D13F0400F0AD072
:1035400013F0800F09D1FDF7ADFF0546616A0198C0
:10355000FEF7C6FD78B102B070BD0123226A04F106
:10356000300101984078FDF7CBFC40BB237D03F090
:103570007F032375E7E7A66AF37A43F02003F3722B
:10358000A26831462068FEF77FFCE16806F11C0066
:10359000FEF742FB294606F11600FEF73DFB00212F
:1035A00006F11200FEF734FB019B0122DA7001984C
:1035B000FFF76AFA237D23F040032375CBE7012050
:1035C000C9E710B582B00446FFF7AFFF08B102B0FB
:1035D00010BD01A92046FEF736FD0028F7D120696D
:1035E000FEF7E2FB0028F2D12060F0E7134B5B7A94
:1035F00013BB10B5044603F0FF00104B93F809C04D
:103600005FFA8CFC4FF0000E03F80CE093F809C051
:1036100003EB8C0CCCF804405C7A1C4422725A7A7E
:10362000541CE4B25C7230320A703A234B702F2380
:103630008B7081F803E010BD012070476805002001
:1036400008B50022FFF7D2FF08BD000008B5034B04
:1036500053F820300846984708BD00BF8C4F01083A
:1036600000787047407870470288130243EA1223BB
:103670000380704700B583B0002100914FF461438F
:10368000034A044802F026FD03B05DF804FB00BFC6
:1036900074E60020003001402DE9F04389B0002697
:1036A0000196254B1A6B42F001021A631A6B02F065
:1036B00001020192019A02961A6B42F002021A6309
:1036C0001B6B03F002030293029B022506954FF049
:1036D0000108CDF81080194C204600F00FFC40275F
:1036E000039703A9204603F06FF842463946204667
:1036F00003F05AF9124F384600F000FC4FF0100961
:10370000CDF80C9003A9384603F05EF842464946CE
:10371000384603F049F9204600F0F0FB039503A971
:10372000204603F051F832462946204603F03CF982
:1037300009B0BDE8F08300BF00380240000002403D
:103740000008024000B583B08DF807000022102168
:10375000064803F029F901230DF10702002104486E
:1037600002F0A4FC03B05DF804FB00BF00080240B7
:103770000030014000B583B08DF807000122102110
:10378000064803F011F901230DF107020021044856
:1037900002F08CFC03B05DF804FB00BF000802409F
:1037A00000300140884201D8F02900D9704738B56F
:1037B0000A4B1D78284484B20D44ADB22A20FFF78D
:1037C000C1FF200AFFF7D6FFE0B2FFF7D3FF280AB8
:1037D000FFF7D0FFE8B2FFF7CDFF38BD75C7012076
:1037E000884201D8F02900D9704738B50A4B1D78B6
:1037F000284484B20D44ADB22B20FFF7A3FF200A6A
:10380000FFF7B8FFE0B2FFF7B5FF280AFFF7B2FFF6
:10381000E8B2FFF7AFFF38BD74C70120F8B50F4617
:1038200016461D4600F007043620FFF78BFF072CD5
:1038300006D8DFE804F0050410121416181A402404
:1038400007B1102406B104240DB144F00804204649
:10385000FFF790FFF8BD8024F2E7C024F0E72024B2
:10386000EEE76024ECE7A024EAE7E024E8E710B5FF
:1038700004463A20FFF766FF04F07700FFF77AFF6F
:1038800010BD000010B5094C00224021204603F075
:103890008BF80A2002F084FC01224021204603F02C
:1038A00083F8962002F07CFC10BD00BF00000240AF
:1038B00008B538B11020FFF745FF4FF4FA7002F059
:1038C0006FFC08BD1120FFF73DFFF6E708B518B102
:1038D0002120FFF737FF08BD2020FFF733FFFAE76D
:1038E00008B518B12920FFF72DFF08BD2820FFF7E4
:1038F00029FFFAE738B50C461D461146FFF752FF7F
:1039000029462046FFF76CFF2C20FFF71BFF38BD30
:1039100008B5642800D828B101220221044803F028
:1039200043F808BD00220221014803F03DF8F8E702
:103930000000024030B583B0ADF8062083B2EF2B13
:1039400005D805460C46002901DBEF2901DD03B04F
:1039500030BD0DF10600FFF787FEC4EB041405EB44
:103960000415034BBDF8062023F81520EFE700BF30
:1039700074050020F8B5141E43DD1F46002B40DD02
:10398000EF283EDCEF293CDC002819DB00291BDB9B
:10399000002C36DD002F34DD05462318F02B02DD28
:1039A000C0F1F00004B20E467B18F02B02DDC1F12D
:1039B000F0010FB206A8FFF757FE4FF0000E1BE014
:1039C000204404B20020E1E739440FB20021DFE7D0
:1039D00006EB0C01C1EB011105EB01111944094A79
:1039E000BDF8180022F8110001339BB2A342EFDBAF
:1039F0000EF1010E1FFA8EFEF446BE4501DA0023D9
:103A0000F4E7F8BD7405002000B583B0EF231A4633
:103A100000210846FFF76EFF01221021074802F03F
:103A2000C3FF074B00934FF46143064A0021064849
:103A300002F050FB03B05DF804FB00BF0008024039
:103A4000753600087405002000300140F0207047F2
:103A5000F020704710B582B00024FD4B1C70FD4B68
:103A60001C70FFF719FE0121FB4802F089FAFFF7ED
:103A700009FFEF20FFF766FEEB20FFF763FE14203F
:103A8000FFF778FEFE20FFF75DFEEF20FFF75AFEFE
:103A9000EB20FFF757FE1420FFF76CFE8420FFF7A2
:103AA00051FE4020FFF766FE8520FFF74BFEFF200A
:103AB000FFF760FE8620FFF745FEFF20FFF75AFE66
:103AC0008720FFF73FFEFF20FFF754FE8820FFF717
:103AD00039FE0A20FFF74EFE8920FFF733FE212032
:103AE000FFF748FE8A20FFF72DFE2046FFF742FE33
:103AF0008B20FFF727FE8020FFF73CFE8C20FFF78E
:103B000021FE0120FFF736FE8D20FFF71BFE01206E
:103B1000FFF730FE8E20FFF715FEFF20FFF72AFE8D
:103B20008F20FFF70FFEFF20FFF724FEB620FFF7E0
:103B300009FE2046FFF71EFE2020FFF71BFE012393
:103B4000224621462046FFF769FE0520FFF78FFE3B
:103B50009020FFF7F7FD0820FFF70CFE0820FFF785
:103B600009FE0820FFF706FE0820FFF703FEBD2030
:103B7000FFF7E8FD0620FFF7FDFDBC20FFF7E2FDA3
:103B80002046FFF7F7FDFF20FFF7DCFD6020FFF781
:103B9000F1FD0120FFF7EEFD0420FFF7EBFDC32050
:103BA000FFF7D0FD1320FFF7E5FDC420FFF7CAFDA6
:103BB0001320FFF7DFFDC920FFF7C4FD2220FFF728
:103BC000D9FDBE20FFF7BEFD1120FFF7D3FDE12098
:103BD000FFF7B8FD1020FFF7CDFD0E20FFF7CAFD5F
:103BE000DF20FFF7AFFD2120FFF7C4FD0C20FFF71A
:103BF000C1FD0220FFF7BEFDF020FFF7A3FD452029
:103C0000FFF7B8FD0920FFF7B5FD0820FFF7B2FD6B
:103C10000820FFF7AFFD2620FFF7ACFD2A20FFF7B5
:103C2000A9FDF120FFF78EFD4320FFF7A3FD7020D3
:103C3000FFF7A0FD7220FFF79DFD3620FFF79AFDEC
:103C40003720FFF797FD6F20FFF794FDF220FFF775
:103C500079FD4520FFF78EFD0920FFF78BFD082039
:103C6000FFF788FD0820FFF785FD2620FFF782FD7E
:103C70002A20FFF77FFDF320FFF764FD4320FFF7C5
:103C800079FD7020FFF776FD7220FFF773FD362077
:103C9000FFF770FD3720FFF76DFD6F20FFF76AFD1E
:103CA000ED20FFF74FFD1B20FFF764FD0B20FFF712
:103CB00061FDAE20FFF746FD7720FFF75BFDCD20CD
:103CC000FFF740FD6320FFF755FD7020FFF73AFD39
:103CD0000720FFF74FFD0720FFF74CFD0420FFF7FB
:103CE00049FD0E20FFF746FD0F20FFF743FD092099
:103CF000FFF740FD0720FFF73DFD0820FFF73AFDE5
:103D00000320FFF737FDE820FFF71CFD3420FFF705
:103D100031FD6220FFF716FD1820FFF72BFD0D2067
:103D2000FFF728FD7120FFF725FDED20FFF722FDAD
:103D30007020FFF71FFD7020FFF71CFD1820FFF714
:103D400019FD0F20FFF716FD7120FFF713FDEF207F
:103D5000FFF710FD7020FFF70DFD7020FFF70AFD43
:103D60006320FFF7EFFC1820FFF704FD1120FFF799
:103D700001FD7120FFF7FEFCF120FFF7FBFC702036
:103D8000FFF7F8FC7020FFF7F5FC1820FFF7F2FCB6
:103D90001320FFF7EFFC7120FFF7ECFCF320FFF797
:103DA000E9FC7020FFF7E6FC7020FFF7E3FC6420DD
:103DB000FFF7C8FC2820FFF7DDFC2920FFF7DAFC1D
:103DC000F120FFF7D7FC0120FFF7D4FCF120FFF72B
:103DD000D1FC2046FFF7CEFC0720FFF7CBFC662086
:103DE000FFF7B0FC3C20FFF7C5FC2046FFF7C2FC04
:103DF000CD20FFF7BFFC6720FFF7BCFC4520FFF795
:103E0000B9FC4520FFF7B6FC1020FFF7B3FC2046B5
:103E1000FFF7B0FC2046FFF7ADFC2046FFF7AAFCF9
:103E20006720FFF78FFC2046FFF7A4FC3C20FFF73C
:103E3000A1FC2046FFF79EFC2046FFF79BFC204696
:103E4000FFF798FC0120FFF795FC542006E000BF27
:103E500075C7012074C7012000300140FFF78AFCBC
:103E60001020FFF787FC3220FFF784FC9820FFF733
:103E700081FC7420FFF766FC1020FFF77BFC852097
:103E8000FFF778FC8020FFF775FC2046FFF772FCF7
:103E90002046FFF76FFC4E20FFF76CFC2046FFF733
:103EA00069FC9820FFF74EFC3E20FFF763FC0720DB
:103EB000FFF760FC3520FFF745FC0120FFF706FD0A
:103EC0002046FFF7F5FC782002F06AF90120FFF7A1
:103ED00007FD142002F064F90094F0231A462146ED
:103EE0002046FFF747FDFFF78FFD142002F058F939
:103EF0006420FFF70DFD02B010BD00BF86B0284B57
:103F0000984218D0274B984223D0274B98422DD067
:103F1000264B984237D0264B984218D10023059360
:103F2000244B1A6B42F010021A631B6B03F0100350
:103F30000593059B0BE0002301931E4B1A6B42F087
:103F400001021A631B6B03F001030193019B06B08E
:103F5000704700230293174B1A6B42F002021A6358
:103F60001B6B03F002030293029BF0E70023039311
:103F7000104B1A6B42F004021A631B6B03F004032C
:103F80000393039BE3E7002304930A4B1A6B42F06D
:103F900008021A631B6B03F008030493049BD6E723
:103FA000000002400004024000080240000C0240F1
:103FB0000010024000380240002900F08A8000B55D
:103FC00083B086468C46434B93E803000090ADF8DF
:103FD0000410012A03D0022A10D0002274E05F23CB
:103FE0008DF800308DF801301C238DF80230FF234E
:103FF0008DF8043055238DF80530EEE7F5238DF864
:10400000003075238DF8013042238DF802308DF891
:1040100004308DF80530E0E707EE902AB8EE677AB5
:104020000EF1FF3307EE903AF8EEE77A87EE276A53
:104030009DF8003007EE103AB8EE477AF7EE007AB6
:1040400077EEC67A27EE277ADFED236A66EE266AD8
:1040500037EE267ABCEEC77A17EE103A8CF80030AD
:104060009DF8013007EE103AB8EE477A27EE877ACE
:104070009DF8043006EE903AF8EE666A66EE866ABF
:1040800037EE267ABCEEC77A17EE103A8CF801307C
:104090009DF8023007EE103AB8EE477A67EE877A5D
:1040A0009DF8053007EE103AB8EE477A27EE067A0B
:1040B00077EE877AFCEEE77A17EE903A8CF80230CA
:1040C0000CF1030C013292B27245A5D303B05DF836
:1040D00004FB70477816010800007F432DE9F84F74
:1040E0008246894616469B460A9F9DF82C800025ED
:1040F0001DE006FB05F307EB430304EB0A0005EBA9
:10410000090133F8142009B200B2FCF715FF01349D
:10411000A6420BDDB8F1000FEBD006FB05F307EB71
:10412000430333F81430002BE3D1F0E70135AB45FE
:1041300001DD0024ECE7BDE8F88F00000023042B2C
:1041400017D80D4A02EBC302127912B10133DBB268
:10415000F5E710B4084C04EBC30101220A7144F8DE
:104160003300E2234B710023CB8010465DF8044BF3
:1041700070470020704700BF78C7012070B582B03B
:104180000546B1F1FF3F27D00E4601230193204B96
:1041900000930A231A46BE216920FFF79FFF0024DF
:1041A0000BE004EB840040004FF6FF730322C321B1
:1041B0007830FDF720F80134E4B2AC4226D2B442A4
:1041C000EFD004EB8400400048F210430322C321E7
:1041D0007830FDF710F8EEE7012301930D4B0093C3
:1041E0000A231A46BE216920FFF778FF00240BE05E
:1041F00004EB8400400048F210430322C3217830CE
:10420000FCF7F9FF0134E4B2AC42F1D302B070BD67
:104210009C4F01086450010810B582B001F0BAFF4C
:10422000044601F0B7FF001BB0F57A7F19D21E20BB
:1042300001F0B6FF0020FCF779FF012301930A4B40
:10424000009354231A464E210846FFF747FFFCF718
:104250006FFE064804F072F90028E2D000F0C8FFB3
:10426000DFE702B010BD00BF4C880108FCD0012080
:1042700010B582B001F08EFF044601F08BFF001BE9
:10428000B0F57A7F19D21E2001F08AFF0020FCF7DA
:104290004DFF012301930A4B009354231A464E21EC
:1042A0000846FFF71BFFFCF743FE064804F046F9FB
:1042B0000028E2D000F09CFFDFE702B010BD00BF95
:1042C0002C510108FCD001202DE9F04F8BB007469E
:1042D0000D461C469DF850300293BDF854B018446A
:1042E0000690D6191A46F31A013B1846099353183B
:1042F000079363189B1A013B089307EB0208824659
:104300000FFA80F9CDF800B00B464A464046FCF75C
:1043100039FF2C44A4B2611E09B2CDF800B00B469F
:104320004A464046FCF72EFF38B2BDF91C80BDF965
:104330002090CDF800B04B4602464146FCF722FFE4
:10434000701E00B2CDF800B04B4602464146FCF765
:1043500019FF069E574609E030B2A31E00220092C4
:104360001BB20246691CFCF70DFF0136BE42F3DDAD
:104370004FF0000A01E00AF1010A029B534577DB86
:10438000029B03FB03F00AFB1A00FCF7D3F841EC95
:10439000100B0BF05DFA51EC100BFCF7E5FB069AE5
:1043A00097B21FFA8AF5531B1AB21346BDF81C6068
:1043B00084B2A6EB04081FFA88F205920FFA88F877
:1043C0005A46414603931846FCF7B6FD3F1B3FB2E1
:1043D000761B36B25A46314604973846FCF7ACFD98
:1043E000BDF8247005EB07090FFA89F95A464146D2
:1043F0004846FCF7A1FD27443FB25A4631463846AD
:10440000FCF79AFDBDF8206034441FFA84F824B20A
:104410005A4621460398FCF78FFD35442DB25A4683
:1044200029460498FCF788FD5A4621464846FCF781
:1044300083FD5A4629463846FCF77EFD029B5345CC
:1044400099DD059C013424B208F1FF380FFA88F891
:10445000002500954346039A21461046FCF792FE3C
:10446000009543464A4621464846FCF78BFE82E7C4
:104470000BB0BDE8F08F0000F0B587B000243AE043
:10448000414B03EBC40300221A7132E03E4E06EBAF
:10449000C5070133FB804FF6FF7301930A23009396
:1044A0003C23782297F905101846FFF70DFF97F97E
:1044B000051089B20A314FF6A053032209B24620F3
:1044C000FCF799FE56F835603046FBF789FE0C285C
:1044D00056D8C0F11E0097F9051089B21631800038
:1044E0004FF6FF7300933346012209B200B2FCF786
:1044F00033FF0134E4B2042C44D82546224B03EBAD
:10450000C4031B79002BF4D01F4B03EBC403DB88DF
:10451000322BB5D8092B05D81B4A02EBC4025179BE
:1045200005315171282BB1D9174A02EBC5025179D7
:1045300005395171AAE7F15C03F118026A4402F8E7
:10454000101C0133DBB2092BF5D9104B1868CDF8DC
:1045500012003046FBF744FEC0F11E000A4B03EB8D
:10456000C50393F9051089B2163180004FF6FF7329
:10457000009302AB012209B200B2FCF7EDFEB8E7EE
:104580000023E0E707B0F0BD78C70120504D0108D7
:104590002DE9F04F2DED048B89B090ED048B90ED5B
:1045A000069B90F830B0D0E9088990ED0A7B8DED3C
:1045B000027B90F847A090F83260447990F831502F
:1045C000B54B1B781BB1B54B1B78B34209D03246B3
:1045D000B3494320FFF7F0FCAF4B01221A70AF4BF9
:1045E0001E70DDE9022351EC180BFCF79DFA30B97F
:1045F00042464B4651EC180BFCF778FAF0B1022218
:10460000A7494320FFF7D8FCA34B01221A70A34B04
:104610001E70DDE9026732463B4651EC180BFCF791
:1046200083FA28B130463946FCF79EFA06B20DE00F
:1046300040464946FCF798FA06B207E0964B00223E
:104640001A7051EC180BFCF78FFA06B21E2001F01D
:10465000A7FD0020FCF76AFD012C00D045B151EC0C
:10466000190BFCF781FA06B2B0EE498AF0EE698ABE
:104670003046FBF75FFF42464B46FBF70DFE82A339
:10468000D3E90023FBF7C0FF06460F4642464B46E0
:10469000DDE90201FBF700FE02460B4630463946D3
:1046A000FCF7DCF800227F4BFBF7F6FDFCF75CFA29
:1046B00006B2012C22D005A90320B0EE480AF0EE84
:1046C000680A07F04BFA534605AA774906A807F08F
:1046D00069FB002D36D106A8FBF782FD00EB4000F8
:1046E0004000C0F178004FF6FF73009306AB032241
:1046F000A02100B2FCF730FE022C20D005A9032037
:10470000B0EE490AF0EE690A07F028FA534605AA06
:10471000654906A807F046FB002D42D1012C56D072
:1047200006A8FBF75DFDC0F11E0080004FF6FF7389
:10473000009306AB0222C82100B2FCF70DFE6FF019
:10474000DF049BE001F026FD584B1B68C31AB3F54C
:10475000FA7F0CD801F01EFD544B1B68C31AB3F549
:104760007A7FC9D901F016FD504B1860C4E701F0FB
:1047700011FD4E4B1B68C31AB3F57A7FEAD206A827
:10478000FBF72EFD00EB40004000C0F178004FF633
:10479000FF73009306AB0322A02100B2FCF7DCFDFF
:1047A000D8E701F0F7FC414B1B68C31AB3F5FA7F59
:1047B000B4D301F0EFFC3D4B1B68C31A40F2EE226C
:1047C0009342BCD901F0E6FC384B1860B7E706A865
:1047D000FBF706FD00EB40004000C0F178004FF60B
:1047E000FF73009306AB0322C82100B2FCF7B4FDAF
:1047F000A5E707EE904AF8EEE77A17EE900AFBF786
:10480000ABFE23A3D3E90023FBF7FEFE0022284BD7
:10481000FCF724F8FCF7F0F9FBF79EFE41EC180BCF
:10482000B0EE480AF0EE680A0BF046F851EC100BB7
:104830000022204BFBF7E8FE00221F4BFBF72EFD6A
:10484000FCF792F90546B0EE480AF0EE680A0BF064
:1048500077F851EC100B0022164BFBF7D5FE002227
:10486000154BFBF71BFDFCF77FF941F28203142285
:1048700001B228B2FCF7BFFC043424B22B2CB8DD03
:104880006FF0DF04002570E00000000000C0704001
:10489000F1D4C853FB2109406EC801206DC8012026
:1048A000A4C7012000006C40544D0108A0C701209E
:1048B000008066400040594000005E4007EE904A8C
:1048C000F8EEE77A17EE900AFBF746FE3EA3D3E92F
:1048D0000023FBF799FE0022354BFBF7BFFFFCF7E7
:1048E0008BF9FBF739FE41EC180BB0EE480AF0EEFD
:1048F000680A0AF0E1FF51EC100B00222D4BFBF788
:1049000083FE00222C4BFBF7C9FCFCF72DF9074670
:10491000B0EE480AF0EE680A0BF012F851EC100BFA
:104920000022244BFBF770FE0022234BFBF7B6FC62
:10493000FCF71AF9214A05EB4503D118D35C1B0299
:1049400003F478431BB24A78D20002F4FC621343AA
:104950008A7843EAD2039BB2142201B238B2FCF740
:104960004AFC0135ADB2043424B2B442A6DBBBF13B
:10497000000F12D101230193114B009354231A46C7
:104980004E210846FFF7AAFBFFF776FDFCF7D0FAA9
:1049900009B0BDEC048BBDE8F08F01230193094BF6
:1049A000009354231A464E210846FFF797FBEBE786
:1049B000008066400040594000005E40A4C70120CE
:1049C0006CBF01088CF60108F1D4C853FB210940E3
:1049D00010B58AB01E2001F0E3FB0020FCF7A6FB17
:1049E000104C002203A9204605F061F8002202A91C
:1049F000204605F082F89DF80D309DF80C200A49FC
:104A000008A807F0CFF94FF6FF73009308AB032215
:104A100069215520FCF7A0FCFFF72EFDFCF788FA72
:104A20000AB010BDDCD001205C4D0108F0B587B0A4
:104A300007460E461E2001F0B3FB0020FCF776FB74
:104A40004FF6FF740094194B012269215520FCF7A1
:104A500083FC01F0B9FB0246154903A807F0A2F94F
:104A6000009403AB0122AF215020FCF775FC012517
:104A700010E005EB450000EBC00000EB84004FF4B4
:104A80007F430A22962100B2FCF7B5FB0134092CC2
:104A9000EFDD0135B54203DABD4201DC0124F6E762
:104AA000FFF7EAFCFCF744FA07B0F0BD684D0108D7
:104AB000744D01080000000070B52DED048B089DB9
:104AC000099E801ACC1A04FB04F300FB003305FB9B
:104AD00005F506FB06F6AB4250DBB0EE408AF0EE81
:104AE000608AB34201DD002049E0FBF723FD41EC81
:104AF000190B2046FBF71EFDB0EE491AF0EE691ABD
:104B000041EC100B0AF0A2FE51EC100B1FA3D3E9ED
:104B10000023FBF779FDFCF76FF807EE900AF5EE3E
:104B2000C07AF1EE10FA10D4B4EEE88AF1EE10FA81
:104B300014D8F4EEC87AF1EE10FA0BDBF4EEE87A52
:104B4000F1EE10FA08D9002019E09FED0F7A77EE08
:104B5000877AE9E7002012E0012010E0F4EEC87A3D
:104B6000F1EE10FA06DAF4EEE87AF1EE10FA03D874
:104B7000012004E0012002E0002000E00020BDEC64
:104B8000048B70BDAFF300800000B443775AF01A75
:104B9000DCA54C400000000008B52DED048B7838F2
:104BA000783907EE901AB8EEE78A07EE900AF8EE29
:104BB000E77A17EE900AFBF7CFFC41EC190B18EEE1
:104BC000100AFBF7C9FCB0EE491AF0EE691A41EC85
:104BD000100B0AF03BFE51EC100BFCF70DF8FBF745
:104BE000BBFC0FA3D3E90023FBF70EFDFCF704F891
:104BF00000EE100ADFED087A30EE670AB5EEC00A63
:104C0000F1EE10FA02D4BDEC048B08BDDFED037A9F
:104C100030EE270AF7E700BF0000B4420000B443BB
:104C2000775AF01ADCA54C402DE9F0438BB00024F4
:104C3000059406940794089409940094474B1A6BC2
:104C400042F004021A631A6B02F004020092009A06
:104C500001941A6B42F080021A631A6B02F0800210
:104C60000192019A02941A6B42F001021A631A6BC4
:104C700002F001020292029A03941A6B42F00202BD
:104C80001A631A6B02F002020392039A04941A6BDD
:104C900042F008021A631B6B03F008030493049BA1
:104CA000DFF8C490224642F21311484601F07CFE20
:104CB000DFF8B88022464021404601F075FE284DBD
:104CC00022460321284601F06FFE264F224604218A
:104CD000384601F069FE01224FF48071284601F048
:104CE00063FE42F213130593012606960794089477
:104CF00005A9484601F068FD4023059306960794F0
:104D0000089405A9404601F05FFD40F203130593A6
:104D100006960794089405A9284601F055FD04233A
:104D2000059306960794089405A9384601F04CFDB2
:104D30004FF4007305934FF444130693079405A9A9
:104D4000284601F041FD22462146172001F0AAFA2B
:104D5000172001F0B7FA0BB0BDE8F083003802402D
:104D600000040240000C0240000802400000024023
:104D700010B582B000240094364B1A6B42F48002C6
:104D80001A631A6B02F480020092009A01941A6B63
:104D900042F400121A631B6B03F400130193019B8E
:104DA000224621460B2001F07DFA0B2001F08AFA01
:104DB000224621460C2001F075FA0C2001F082FAFF
:104DC000224621460D2001F06DFA0D2001F07AFAFD
:104DD000224621460E2001F065FA0E2001F072FAFB
:104DE000224621460F2001F05DFA0F2001F06AFAF9
:104DF00022462146102001F055FA102001F062FAF7
:104E000022462146112001F04DFA112001F05AFAF4
:104E1000224621462F2001F045FA2F2001F052FAB8
:104E200022462146392001F03DFA392001F04AFAA4
:104E3000224621463A2001F035FA3A2001F042FAA2
:104E400022462146452001F02DFA452001F03AFA8C
:104E500002B010BD003802402DE9F04784B000AF29
:104E60007F4B83421BD07F4B1B7803EBC3030A228B
:104E7000391D7D4850F8330005F080FE3B794C2BFE
:104E800017D0542B15D04F2B00F0CB80774B1B78CD
:104E9000002B00F0CA80754B00221A70BDE07449E7
:104EA000002381F8FF314FF400726D4805F066FE73
:104EB000B3E04C2B13D06B4B1B7803EBC3036A4A54
:104EC00002EBC303002283F832207B79532B11D0ED
:104ED000542B19D0422B21D0022300252BE0614B0B
:104EE0001B7803EBC303604A02EBC303012283F880
:104EF0003220EAE75B4B1B7803EBC3035A4A02EB11
:104F0000C30301225A71E7E7564B1B7803EBC30337
:104F1000554A02EBC30302225A71DDE7514B1B785D
:104F200003EBC303504A02EBC30300225A71D3E7D9
:104F3000592A0DD00133092B0EDC03F110023A443B
:104F400012F80C2C582AF3D1DDB2013DEDB2EFE797
:104F5000DCB2013CE4B200E000246E46AB1D23F05D
:104F60000703ADEB030DEA46A4EB050808F10603C1
:104F700023F00703ADEB030D6A1EB91D504607F081
:104F800048F8A91C42463B1D1944684607F041F801
:104F9000DFF8D09099F80080504605F072FF324D4E
:104FA00008EBC80805EBC80888ED080B99F80080E5
:104FB000684605F066FF08EBC80805EBC80888EDF1
:104FC0000A0B99F8001004F11203DC1914F80C3CD8
:104FD00001EBC10205EBC20585F84730472385F890
:104FE0003D30244B1B78BBB901202871224A002098
:104FF00010702248027801320270032B09D8204A2F
:10500000D256B2F1FF3F02D00133DBB2F5E71C4AC2
:10501000D1544B1C134A1370B5461037BD46BDE83A
:10502000F087184B00221A70F7E70E4D2C78381DC8
:1050300005F027FF0C4A04EBC40402EBC40484ED22
:10504000040B2B7803EBC30102EBC1010C460022D9
:105050000D4BD1E90401FBF701FCC4E90401DCE7D5
:10506000C4CE012000CB0120080000202801002030
:10507000F8C8012001CB012002000020FFCA012056
:105080002C01002076C8012000002440B0F5007FEC
:1050900001D000BF7047024B01221A70704700BF59
:1050A00072C80120184B1B7863BB00B30BE00133BF
:1050B000164A1370154B1B7803EBC303144A02EB1B
:1050C000C3031B79DBB9114B1B78022BEFD90F4BB4
:1050D00000221A70EEE7013B0C4A13700B4B1B7851
:1050E00003EBC3030A4A02EBC3031B793BB9074B2B
:1050F0001B78002BEFD1054B03221A70EEE7054B0E
:1051000001221A70704700BF0200002000CB01206E
:105110000800002028010020A0EB010C0098C01A14
:1051200000FB0CFC521ABCFBF2FC0CEB03007047BA
:1051300070B505460A4C802632460021204606F00E
:10514000C4FE2B46074A3146204606F0F5FD2046B0
:10515000FBF746F882B22146034805F0F9F970BD25
:1051600078C80120804D0108C4CE012008B506484A
:10517000FFF7DEFF642001F013F80449044806F04D
:10518000BEFE00B1012008BD884D0108944D010804
:10519000F8C8012008B50548FFF7CAFF04490548CB
:1051A00006F0ADFE00B1012008BD00BFA44D01080E
:1051B000B04D0108F8C8012008B50348FFF7B8FF53
:1051C000322000F0EDFF08BDBC4D010808B50648CF
:1051D000FFF7AEFF322000F0E3FF0448FFF7A8FF1F
:1051E000322000F0DDFF08BDC84D0108D44D010894
:1051F00008B572B601F06AF808BD000008B50E489F
:105200000E4B03604FF4827343604FF4004383609E
:105210000023C360036143614FF480228261C36154
:105220000362436283620A23C36204F033FD00B960
:1052300008BDFFF7DDFFFBE784D00120003001400F
:1052400008B50A480A4B03604FF4E133436000237A
:105250008360C36003610C2242618361C36105F016
:1052600047F900B908BDFFF7C3FFFBE79CCF01205A
:105270000050004008B50A480A4B03604FF4E13380
:10528000436000238360C36003610C224261836139
:10529000C36105F02DF900B908BDFFF7A9FFFBE7D1
:1052A000C4CE01200014014008B50E480E4B036027
:1052B0004FF48273436000238360C36003614361E2
:1052C0004FF4007282613822C261036243628362DA
:1052D0000A23C36204F0DEFC00B908BDFFF788FFB3
:1052E000FBE700BF2CD001200038004010B590B083
:1052F00000240B940C940D940E940F940A9428227D
:105300002146684606F0E1FD2D482E4B03604460BF
:105310007F238360FF23C36004614461846104F0E0
:10532000F9F900283FD10121254804F009FC42F297
:105330004533984235D000238DF82C308DF82D3030
:105340008DF82E300E930F9301220BA91C4804F008
:105350003BFA58BB01228DF828208DF829208DF8C2
:105360002A2000238DF82B300AA9154804F08CFA66
:10537000F8B900238DF800308DF801308DF8023037
:1053800001930393049305930693079301228DF8E9
:1053900020204FF4807309936946094804F0C2FA4B
:1053A00050B910B010BDFFF723FFBCE7FFF720FF97
:1053B000D0E7FFF71DFFDCE7FFF71AFFF1E700BFBB
:1053C000DCD001200028004008B50A480A4B0360E1
:1053D0004FF4E133436000238360C36003610C2218
:1053E00042618361C36105F083F800B908BDFFF72E
:1053F000FFFEFBE754CF01200044004008B50748FA
:10540000074B03600623436040F2E243836003F0EE
:1054100069F800B908BDFFF7EBFEFBE7FCD00120FF
:105420000030004008B50A480A4B03604FF4E133EE
:10543000436000238360C36003610C224261836187
:10544000C36105F055F800B908BDFFF7D1FEFBE7D1
:10545000E4CF0120004C004008B50A480A4B036025
:105460004FF4E133436000238360C36003610C2287
:1054700042618361C36105F03BF800B908BDFFF7E5
:10548000B7FEFBE70CCF01200048004008B50B48F1
:105490000B4B03600B4B436000238360C3604FF4EE
:1054A0008042026143618361C361036201F0CAFE0D
:1054B00000B908BDFFF79CFEFBE700BF08D1012043
:1054C00000540040A086010000B595B034220021B0
:1054D00007A806F0FAFC00230293039304930593B4
:1054E00006930093224A116C41F080511164126CB2
:1054F00002F080520092009A01931E4B1A6842F407
:1055000040421A601B6803F440430193019B0D2342
:1055100007934FF480330893012309930C930223DC
:105520000D934FF480020E9204220F92602210928B
:1055300011931293139307A803F092FE88B90F23D7
:10554000029302230393002304934FF480520592A5
:105550000693032102A803F0BFFB28B915B05DF83C
:1055600004FBFFF745FEEAE7FFF742FEF6E700BF60
:10557000003802400070004000B59BB04248FFF781
:10558000D7FD322000F00CFE4FF0000C0DE0013191
:1055900001323E4B9B5C1BB13D48405C8342F6D0E0
:1055A000002A00DD9BB10CF1010C394B13F80C30D3
:1055B0007BB161460022ECE703EB0C023449895CC5
:1055C00003F168026A4402F8201C0133DBB21D2B90
:1055D000F2D900238DF8653005AB009306AB09AA1C
:1055E0002C4912A806F000FC032802D01BB05DF87D
:1055F00004FB0DF10E0300930DF10F0304AA2649DD
:1056000009A806F0F1FB9DF810308DF847309DF8A1
:105610000F308DF845309DF80E308DF8463005235B
:105620008DF84430002211A91C4804F02DF928BB44
:105630000DF1130300930DF112030DF1110218493E
:1056400006A806F0D1FB9DF811308DF830309DF89A
:1056500012308DF831309DF813308DF83230002241
:105660000F9210920CA90D4804F0AEF848B942F21E
:1056700045320121094804F05EFAB7E7FFF7B8FDAB
:10568000D6E7FFF7B5FDF2E7DC4D0108E84D01086C
:10569000F8C80120F04D0108044E0108DCD00120BB
:1056A000104E01082DE9F04FADF5055D81B000F019
:1056B0004BFDFFF709FFFFF7B7FAFFF759FBFFF7BD
:1056C0009DFDFFF7BDFDFFF7D5FDFFF7EDFDFBF7F6
:1056D000DBFEFFF70BFEFFF777FEFFF78FFEFFF70E
:1056E000A1FEFFF7B9FEFFF7D1FEF0210846FBF758
:1056F00037FD00F04FFD00F04DFD054600F04AFD7E
:10570000074600F047FD0446BE4E00220DF5045149
:105710002831304604F0CBF900220DF504513C311C
:10572000304604F0EAF90121304604F009FA42F269
:105730004533984216D1B44B01221A700122B34965
:105740000DF587501030FDF7A5FC70B9B04B012264
:105750001A704FF40072AF49AF4805F00FFA4FF0DE
:10576000000820E0FEF784FDE8E7FEF755FDF0E7CE
:1057700008EBC803A94E06EBC306D6F80890B6F8A6
:105780000CA000225146484601F00EF9642000F0BA
:1057900007FD01225146484601F006F9542386F8D8
:1057A0003D3008F10108B8F1030FE1DD00F0F2FC33
:1057B00006469B48FBF716FB10B14FF00009CBE102
:1057C00000F084FDF9E7DFF85CA204219AF80000FC
:1057D000FFF72CF99AF8003003EBC301C900383108
:1057E000DFF83882414403EBC3030A22053158F83D
:1057F000330004F0ADFE9AF8003003EBC301C9009A
:105800003031414403EBC3030A22033158F833001B
:1058100005F0B4F9B5E1834B187800EBC0007F4B7D
:1058200003EBC000FEF7B4FE7F4B1B789BBB7D4BA8
:105830001B7803EBC301794A02EBC1025279012ABA
:105840000CD10021032900F29C81784B5A56754BEC
:105850001B789A423FD00131C9B2F3E7C900383111
:10586000DFF8B881414403EBC3030A22053158F83D
:10587000330004F06DFE6B4B1B7803EBC301C900D2
:105880003031414403EBC3030A22033158F833009B
:1058900005F074F9D5E7DFF88481DFF888A19AF87C
:1058A000003003EBC30308EBC303D3E90601FBF7A6
:1058B0005BF90A221CA905F0FFFA9AF8003003EB05
:1058C000C3030A221CA958F8330004F041FE564BCA
:1058D00000221A70B5E749B2554B1878FEF74EFC16
:1058E0004FE108F101034F4A137059E1FFF73EFC05
:1058F000002800F068814F48FEF720FC4E4B012243
:105900001A7060E1FFF746FC002800F064814B4804
:10591000FEF714FC3C4B1B7813B9494B1B781BB1A9
:10592000484B01221A7056E1FFF750FCFFF744FC88
:10593000434B01221A704EE1FFF71EFE0121314850
:1059400004F0FEF842F24533984240F04C813E4864
:10595000FEF7F4FB2C4B01221A7044E13B4B93F809
:105960000080B8F1000F40F0468101201870FFF769
:1059700099FB374B00221A70254B1B78002B00F047
:105980003A810DF504532A331B780DF504523E324B
:1059900012780DF504513D3109780DF504503F3072
:1059A000007803900291019200930DF5045329337E
:1059B0001B780DF5045228321278264913A806F0F8
:1059C000F1F91A2213A930A8FDF792FB224B5B6F65
:1059D00013F0005F09D113F0806F41D142462FAB25
:1059E0000EA930A8FDF799FC6FE01C4B0DF1380CA7
:1059F0000FCBACE807002CF8023B1B0C8CF80030F6
:105A00000E22ECE7DCD0012071C80120F84E01081D
:105A100075C80120F8C80120C4CE0120080000206C
:105A200008D1012000CB012076C801202C010020E4
:105A3000FFCA01201C4E010873C801202C4E01082A
:105A400070C8012074C801203C4E010801CB012020
:105A5000FECA01204C4E010800380240744E010875
:105A60000DF1380CA24B0FCB8CE80F000F22B6E7DC
:105A7000A04B0DF1280C0FCBACE80700ACF80030C0
:105A80000BEBCB029C4B03EBC20A08A905209AED55
:105A9000080B06F063F806A905209AED0A0B06F03C
:105AA0005DF80AAB019306AB009308AB5A469349E5
:105AB0001CA806F077F9C2B22FAB1CA930A8FDF7DD
:105AC0002CFC08F101085FFA88F8B8F1030F2DD813
:105AD000C34608EBC802884B03EBC2031B79DBB15A
